:100000000C945C000C9479000C9479000C947900A9
:100010000C9479000C9479000C9479000C9479007C
:100020000C9479000C9479000C9479000C9479006C
:100030000C9479000C9479000C9479000C9479005C
:100040000C940B010C9479000C9479000C947900B9
:100050000C9479000C9479000C9479000C9479003C
:100060000C9479000C947900000000080002010053
:100070000003040700000000000000000000000072
:10008000250028002B0000000000240027002A0083
:10009000040404040404040402020202020203032E
:1000A0000303030301020408102040800102040836
:1000B000102001020408102011241FBECFEFD8E049
:1000C000DEBFCDBF11E0A0E0B1E0E4E3F4E002C0A8
:1000D00005900D92A831B107D9F721E0A8E1B1E070
:1000E00001C01D92A132B207E1F70E9455010C94A4
:1000F00018020C94000090E0FC01EC55FF4F249195
:1001000080579F4FFC018491882399F090E0880FDD
:10011000991FFC01EA57FF4FA591B491FC01E458E7
:10012000FF4F859194918FB7F894EC91E22BEC936B
:100130008FBF089590E0FC01E859FF4F2491FC0126
:10014000EC55FF4F3491FC01E057FF4FE491EE2353
:10015000C9F0222339F0233001F1A8F4213019F13C
:10016000223029F1F0E0EE0FFF1FE458FF4FA59178
:10017000B4918FB7F894EC91611126C030953E236D
:100180003C938FBF08952730A9F02830C9F0243060
:1001900049F7809180008F7D03C0809180008F7728
:1001A00080938000DFCF84B58F7784BDDBCF84B5AB
:1001B0008F7DFBCF8091B0008F778093B000D2CF3E
:1001C0008091B0008F7DF9CF3E2BDACF3FB7F89406
:1001D00080911D0190911E01A0911F01B0912001FD
:1001E00026B5A89B05C02F3F19F00196A11DB11D92
:1001F0003FBFBA2FA92F982F8827BC01CD01620FCE
:10020000711D811D911D42E0660F771F881F991F88
:100210004A95D1F708951F920F920FB60F921124AD
:100220002F933F938F939F93AF93BF938091190127
:1002300090911A01A0911B01B0911C0130911801FD
:1002400023E0230F2D3758F50196A11DB11D2093F2
:1002500018018093190190931A01A0931B01B09388
:100260001C0180911D0190911E01A0911F01B09170
:1002700020010196A11DB11D80931D0190931E01C7
:10028000A0931F01B0932001BF91AF919F918F91D7
:100290003F912F910F900FBE0F901F90189526E859
:1002A000230F0296A11DB11DD2CF789484B5826030
:1002B00084BD84B5816084BD85B5826085BD85B50A
:1002C000816085BD80916E00816080936E00109288
:1002D0008100809181008260809381008091810003
:1002E0008160809381008091800081608093800094
:1002F0008091B10084608093B1008091B0008160F2
:100300008093B00080917A00846080937A0080911D
:100310007A00826080937A0080917A008160809375
:100320007A0080917A00806880937A001092C100F0
:1003300086E00E947B0088E00E947B008AE00E94A9
:100340007B0040E0642E40E0742ED0E0C0E009E184
:1003500010E020E1C22E21E0D22E30E0E32E31E089
:10036000F32E60E088E00E949A00F60181916F010F
:1003700090E0809590950C2E02C0959587950A94F3
:10038000E2F7B82E98E0A92E6B2D617086E00E94EE
:100390009A00B69461E08AE00E949A0060E08AE0E8
:1003A0000E949A00AA94A110EFCFF701B080F2E06A
:1003B000EF0EF11C88E0A82E6B2D661F6627661FC6
:1003C00086E00E949A00BB0C61E08AE00E949A00DD
:1003D00060E08AE00E949A00AA94A110EDCF61E04B
:1003E00088E00E949A000E94E6004B015C010E9496
:1003F000E600681979098A099B09683E73408105FE
:100400009105A8F328E1C21621E0D20609F0A9CF90
:100410000150110909F09DCF2196C930D10509F08D
:1004200096CF6114710409F490CF0E9400008DCF23
:04043000F894FFCF6E
:1004340001000200040008001000200040008000B9
:0804440000FFDB187E99422441
:00000001FF
