:100000000C9462000C948A000C948A000C948A0070
:100010000C948A000C948A000C948A000C948A0038
:100020000C948A000C948A000C948A000C948A0028
:100030000C948A000C948A000C948A000C948A0018
:100040000C94F8030C948A000C94C6030C94A0033F
:100050000C948A000C948A000C948A000C948A00F8
:100060000C948A000C948A000000000023002600F3
:10007000290000000008000201000003040700003E
:1000800000000000000000000000250028002B00F8
:1000900000000000240027002A00040404040404D3
:1000A0000404020202020202030303030303010227
:1000B00004081020408001020408102001020408F6
:1000C0001020990511241FBECFEFD8E0DEBFCDBFB1
:1000D00011E0A0E0B1E0E8E5F0E102C005900D928A
:1000E000A638B107D9F722E0A6E8B1E001C01D9219
:1000F000A833B207E1F710E0C2E6D0E004C02197D0
:10010000FE010E942408C136D107C9F70E944204AB
:100110000C942A080C940000CF93DF9390E0FC012C
:10012000E255FF4F249186569F4FFC01849188230E
:10013000C1F090E0880F991FFC01E057FF4FC59177
:10014000D491FC01EA57FF4FA591B4919FB7F89461
:100150008881E22FE0958E2388838C91E823EC93AD
:100160009FBFDF91CF910895AF92BF92CF92DF9260
:10017000EF92FF920F931F93CF93DF936C017B015C
:100180008B01040F151FEB015E01AE18BF08C017ED
:10019000D10759F06991D601ED91FC910190F08160
:1001A000E02DC6010995892B79F7C501DF91CF9123
:1001B0001F910F91FF90EF90DF90CF90BF90AF9085
:1001C0000895FC01538D448D252F30E0842F90E05D
:1001D000821B930B541710F0CF9608950197089542
:1001E000FC01918D828D981761F0A28DAE0FBF2F0B
:1001F000B11D5D968C91928D9F5F9F73928F90E061
:1002000008958FEF9FEF0895FC01918D828D9817CF
:1002100031F0828DE80FF11D858D90E008958FEF0C
:100220009FEF0895FC01918D228D892F90E0805CD5
:100230009F4F821B91098F73992708958BE991E055
:100240000E94120121E0892B09F420E0822F0895F9
:1002500080E090E0892B29F00E941E0181110C940E
:1002600000000895FC01A48DA80FB92FB11DA35A59
:10027000BF4F2C91848D90E001968F739927848FC6
:10028000A689B7892C93A089B1898C9183708064E9
:100290008C93938D848D981306C00288F389E02D8A
:1002A00080818F7D80830895EF92FF920F931F933B
:1002B000CF93DF93EC0181E0888F9B8D8C8D981319
:1002C0001AC0E889F989808185FF15C09FB7F89425
:1002D000EE89FF896083E889F98980818370806471
:1002E00080839FBF81E090E0DF91CF911F910F91BC
:1002F000FF90EF900895F62E0B8D10E00F5F1F4FCB
:100300000F731127E02E8C8D8E110CC00FB607FCD9
:10031000FACFE889F989808185FFF5CFCE010E9467
:100320003201F1CFEB8DEC0FFD2FF11DE35AFF4FA2
:10033000F0829FB7F8940B8FEA89FB8980818062F5
:10034000CFCFCF93DF93EC01888D8823B9F0AA89B2
:10035000BB89E889F9898C9185FD03C0808186FD80
:100360000DC00FB607FCF7CF8C9185FFF2CF8081CF
:1003700085FFEDCFCE010E943201E9CFDF91CF9111
:10038000089590E0FC01EE58FF4F2491FC01E255E6
:10039000FF4F3491FC01E656FF4FE491EE23C1F18B
:1003A000222339F02330E9F090F4213001F122309A
:1003B00011F1F0E0EE0FFF1FE859FF4FA591B49146
:1003C000EC91E32381E090E029F580E00895273067
:1003D000A9F02830C9F0243061F7809180008F7D2A
:1003E00003C0809180008F7780938000E2CF84B536
:1003F0008F7784BDDECF84B58F7DFBCF8091B00039
:100400008F778093B000D5CF8091B0008F7DF9CFEA
:1004100080E090E008953FB7F89480918701909133
:100420008801A0918901B0918A0126B5A89B05C0D9
:100430002F3F19F00196A11DB11D3FBFBA2FA92F63
:10044000982F8827BC01CD01620F711D811D911D60
:1004500042E0660F771F881F991F4A95D1F70895CC
:100460008F929F92AF92BF92CF92DF92EF92FF92C4
:100470000E940B024B015C0188ECC82ED12CE12CB0
:10048000F12C0E940B02681979098A099B09683EC0
:10049000734081059105A8F321E0C21AD108E10853
:1004A000F10888EE880E83E0981EA11CB11CC114CF
:1004B000D104E104F10429F7FF90EF90DF90CF9091
:1004C000BF90AF909F908F900895FC010190002005
:1004D000E9F73197AF01481B590BBC018BE991E05B
:1004E0000C94B4008F929F92AF92BF920F931F9380
:1004F000CF93DF93CDB7DEB7A1970FB6F894DEBFE9
:100500000FBECDBF19A2423008F44AE08E010F5D44
:100510001F4F842E912CB12CA12CA50194010E9477
:100520000208E62FB901CA01EA30F4F4E05DD8010F
:10053000EE938D01232B242B252B79F790E080E07F
:10054000109719F0CD010E946502A1960FB6F8949C
:10055000DEBF0FBECDBFDF91CF911F910F91BF9036
:10056000AF909F908F900895E95CE1CFCF93DF9398
:100570000E946502EC0182E191E00E9465028C0F0D
:100580009D1FDF91CF9108954F925F926F927F925E
:100590008F929F92AF92BF92CF92DF92EF92FF9293
:1005A0000F931F93CF936B017C01742EAC019B01C1
:1005B0000E94FD07882399F085E191E0CF911F917A
:1005C0000F91FF90EF90DF90CF90BF90AF909F90F2
:1005D0008F907F906F905F904F900C9465024601D2
:1005E0005701E894B7F82FEF3FEF4FE75FE7C501FA
:1005F000B4010E94FD0781110DC02FEF3FEF4FE7BF
:100600005FE7C501B4010E94330618161CF489E1A6
:1006100091E0D4CF2FEF3FEF4FE75FE4C701B60182
:100620000E948B0718161CF48DE191E0C7CF2FEFC5
:100630003FEF4FE75FECC701B6010E94330687FD2D
:10064000F3CF20E030E0A901C701B6010E943306D4
:1006500010E000E087FF0AC06DE28BE991E00E94A4
:1006600054018C01F7FAF094F7F8F094C0E060E0E0
:1006700070E080E09FE37C1641F020E030E040E253
:1006800051E40E943806CF5FF6CFA70196010E9481
:10069000C7052B013C010E94AA064B015C014AE000
:1006A0000E9472027C01E00EF11ECC23C1F1C50153
:1006B000B4010E94D9069B01AC01C301B2010E94A2
:1006C000C6054B015C016EE28BE991E00E9454018A
:1006D000E80EF91EC15018F120E030E040E251E48C
:1006E000C501B4010E9490072B013C010E94AA069B
:1006F0004B01B12CA12C4AE0C501B4010E94720249
:10070000E80EF91EC501B4010E94D9069B01AC0197
:10071000C301B2010E94C6054B015C01DBCFC701DA
:10072000CF911F910F91FF90EF90DF90CF90BF90EE
:10073000AF909F908F907F906F905F904F900895B3
:100740001F920F920FB60F9211242F933F934F9346
:100750005F936F937F938F939F93AF93BF93EF9329
:10076000FF938BE991E00E943201FF91EF91BF91DD
:10077000AF919F918F917F916F915F914F913F9139
:100780002F910F900FBE0F901F9018951F920F92F0
:100790000FB60F9211242F938F939F93EF93FF9394
:1007A000E091AB01F091AC018081E091B101F09159
:1007B000B20182FD1BC090818091B4018F5F8F7365
:1007C0002091B501821741F0E091B401F0E0E556C7
:1007D000FE4F958F8093B401FF91EF919F918F9180
:1007E0002F910F900FBE0F901F9018958081F4CF1E
:1007F0001F920F920FB60F9211242F933F938F9356
:100800009F93AF93BF9380918F0190919001A0919E
:100810009101B09192013091860123E0230F2D3791
:1008200058F50196A11DB11D2093860180938F017B
:1008300090939001A0939101B093920180918701D0
:1008400090918801A0918901B0918A010196A11D22
:10085000B11D8093870190938801A0938901B09383
:100860008A01BF91AF919F918F913F912F910F90EE
:100870000FBE0F901F90189526E8230F0296A11D1A
:10088000B11DD2CFCF93DF9300D000D0CDB7DEB76C
:10089000789484B5826084BD84B5816084BD85B55B
:1008A000826085BD85B5816085BD80916E00816067
:1008B00080936E001092810080918100826080930D
:1008C000810080918100816080938100809180000F
:1008D0008160809380008091B10084608093B1003A
:1008E0008091B00081608093B00080917A00846034
:1008F00080937A0080917A00826080937A00809160
:100900007A00816080937A0080917A008068809379
:100910007A001092C100E091AB01F091AC0182E04D
:100920008083E091A701F091A8011082E091A901D4
:10093000F091AA018FEC80831092B301E091AF0196
:10094000F091B00186E08083E091AD01F091AE01BD
:10095000808180618083E091AD01F091AE01808162
:1009600088608083E091AD01F091AE018081806864
:100970008083E091AD01F091AE0180818F7D808315
:1009800082E00E948C0083E00E948C0081E291E072
:100990000E94B60280E8882E8EEE982E86E3A82E5E
:1009A000B12C82E00E94C1010197C9F42FB7F894DD
:1009B00080918F0190919001A0919101B09192014D
:1009C0002FBF8093970190939801A0939901B093C2
:1009D0009A010E9430028DE491E00E94B60283E009
:1009E0000E94C101019709F097C08FB7F894C09099
:1009F0008F01D0909001E0909101F09092018FBF13
:100A0000C0929301D0929401E0929501F0929601E8
:100A10000E9430028091970190919801A0919901D4
:100A2000B0919A01A7019601281B390B4A0B5B0B69
:100A3000CA01B90160938B0170938C0180938D0181
:100A400090938E01A50194010E94020829833A83A4
:100A50004B835C8320E63AEE40E050E00E940208BF
:100A600069012B013C0188E591E00E9465026091DB
:100A70008B0170918C0180918D0190918E014AE0E3
:100A80000E94720282E191E00E9465028BE691E091
:100A90000E94650249815A81BA01550F880B990B52
:100AA0000E94DB0640E00E94C4028AE791E00E94B7
:100AB0006502B601DD0C880B990B0E94DB0640E055
:100AC0000E94C4028DE791E00E946502C301B20159
:100AD00028EE33E040E050E00E9402086B017C0108
:100AE000B901330F880B990B0E94DB0640E00E948E
:100AF000C40280E891E00E946502C701B6010E942D
:100B0000D90640E00E94C40283E891E00E94B60248
:100B100082E191E00E94650280E090E0892B09F477
:100B200040CF0E941E01882309F43BCF0E940000A1
:100B300038CFEBE9F1E01382128288EE93E0A0E077
:100B4000B0E084839583A683B78384E091E09183AA
:100B5000808385EC90E09587848784EC90E097878C
:100B6000868780EC90E0918B808B81EC90E0938B7A
:100B7000828B82EC90E0958B848B86EC90E0978B57
:100B8000868B118E128E138E148E08955058BB27AB
:100B9000AA270E94DE050C9451070E94430738F0F3
:100BA0000E944A0720F039F49F3F19F426F40C9470
:100BB00040070EF4E095E7FB0C943A07E92F0E94FA
:100BC000620758F3BA17620773078407950720F086
:100BD00079F4A6F50C9484070EF4E0950B2EBA2F49
:100BE000A02D0B01B90190010C01CA01A001112433
:100BF000FF27591B99F0593F50F4503E68F11A16DF
:100C0000F040A22F232F342F4427585FF3CF46956F
:100C100037952795A795F0405395C9F77EF41F1691
:100C2000BA0B620B730B840BBAF09150A1F0FF0F5B
:100C3000BB1F661F771F881FC2F70EC0BA0F621F47
:100C4000731F841F48F4879577956795B795F79537
:100C50009E3F08F0B0CF9395880F08F09927EE0FCC
:100C60009795879508950E94160708F481E00895E6
:100C70000E944C060C9451070E944A0758F00E94AB
:100C8000430740F029F45F3F29F00C943A075111D3
:100C90000C9485070C9440070E94620768F399231F
:100CA000B1F3552391F3951B550BBB27AA27621768
:100CB0007307840738F09F5F5F4F220F331F441F75
:100CC000AA1FA9F335D00E2E3AF0E0E832D09150A9
:100CD0005040E695001CCAF72BD0FE2F29D0660F96
:100CE000771F881FBB1F261737074807AB07B0E8D9
:100CF00009F0BB0B802DBF01FF2793585F4F3AF0DF
:100D00009E3F510578F00C943A070C9485075F3F9D
:100D1000E4F3983ED4F3869577956795B795F79564
:100D20009F5FC9F7880F911D9695879597F908954C
:100D3000E1E0660F771F881FBB1F621773078407E8
:100D4000BA0720F0621B730B840BBA0BEE1F88F7F7
:100D5000E09508950E946A0788F09F5798F0B92F90
:100D60009927B751B0F0E1F0660F771F881F991FE0
:100D70001AF0BA95C9F714C0B13091F00E948407F7
:100D8000B1E008950C948407672F782F8827B85F07
:100D900039F0B93FCCF3869577956795B395D9F738
:100DA0003EF490958095709561957F4F8F4F9F4F42
:100DB0000895E89409C097FB3EF49095809570954E
:100DC00061957F4F8F4F9F4F9923A9F0F92F96E997
:100DD000BB279395F695879577956795B795F1110C
:100DE000F8CFFAF4BB0F11F460FF1BC06F5F7F4FA9
:100DF0008F4F9F4F16C0882311F096E911C07723BB
:100E000021F09EE8872F762F05C0662371F096E8C3
:100E1000862F70E060E02AF09A95660F771F881F92
:100E2000DAF7880F9695879597F90895990F000836
:100E3000550FAA0BE0E8FEEF16161706E807F907AC
:100E4000C0F012161306E407F50798F0621B730B47
:100E5000840B950B39F40A2661F0232B242B252BC8
:100E600021F408950A2609F4A140A6958FEF811D6B
:100E7000811D089597F99F6780E870E060E008950C
:100E80009FEF80EC089500240A94161617061806A2
:100E90000906089500240A9412161306140605067E
:100EA0000895092E0394000C11F4882352F0BB0F0F
:100EB00040F4BF2B11F460FF04C06F5F7F4F8F4F72
:100EC0009F4F089557FD9058440F551F59F05F3FAD
:100ED00071F04795880F97FB991F61F09F3F79F05C
:100EE00087950895121613061406551FF2CF4695DE
:100EF000F1DF08C0161617061806991FF1CF869560
:100F00007105610508940895E894BB276627772743
:100F1000CB0197F908950E94160708F48FEF089502
:100F20000E94A3070C9451070E94430738F00E94C7
:100F30004A0720F0952311F00C943A070C944007CF
:100F400011240C9485070E94620770F3959FC1F3EA
:100F5000950F50E0551F629FF001729FBB27F00D67
:100F6000B11D639FAA27F00DB11DAA1F649F6627BC
:100F7000B00DA11D661F829F2227B00DA11D621F0B
:100F8000739FB00DA11D621F839FA00D611D221FC5
:100F9000749F3327A00D611D231F849F600D211DA9
:100FA000822F762F6A2F11249F5750409AF0F1F02C
:100FB00088234AF0EE0FFF1FBB1F661F771F881F95
:100FC00091505040A9F79E3F510580F00C943A078C
:100FD0000C9485075F3FE4F3983ED4F386957795AC
:100FE0006795B795F795E7959F5FC1F7FE2B880F3B
:100FF000911D9695879597F908950E941607880B7D
:10100000990B0895A1E21A2EAA1BBB1BFD010DC06E
:10101000AA1FBB1FEE1FFF1FA217B307E407F507A8
:1010200020F0A21BB30BE40BF50B661F771F881F84
:10103000991F1A9469F760957095809590959B011A
:10104000AC01BD01CF010895EE0FFF1F0590F49193
:08105000E02D0994F894FFCF94
:10105800000000005401B400E100A1011201F000F9
:1010680004010D0A006E616E00696E66006F766697
:10107800005072657373203120666F72205374615B
:1010880072742F72657365742C203220666F72201B
:10109800656C61707365642074696D650053746173
:1010A800727465642E2E2E0052617720656C617013
:1010B8007365642074696D653A2000456C617073CE
:1010C80065642074696D653A20006820006D200011
:0610D8007320006D73009F
:00000001FF
